:100C7A00054F68656C6C6F013E00012900012D006B
:0C0C8A00012C00010B00014301010A01D4
:100C9700E4F5AE43AE1043AE0243AE0175B4FF7543
:090CA700B3FF75B24475B1FF22E0
:100C4F00E4F549F54AF549F54A744F254AF8E6FFA8
:100C5F00120CC2054AE54A70020549C39405E549DD
:0B0C6F006480948040E37F0A020CC206
:03002300020B933A
:100B9300C0E0C0F0C083C082C0D075D000C000C028
:0D0BA30001C002C003C004C005C006C007A9
:100BB000756E00309826AF998F6EC2987455254691
:100BC000F8A66EAF46EF3395E0FEEF64014E700A73
:100BD000E56EB44705120C4F800F0546309902C2EE
:100BE00099E56EB44508754300754600800375436A
:010BF0000103
:100BF100D007D006D005D004D003D002D001D00058
:0B0C0100D0D0D082D083D0F0D0E03201
:100A290074552509F8E6FFB45314753E017529017B
:100A3900E4F52CF52D0509E5097017050822EFB431
:100A49004411E4F529752D01F52C0509E509700214
:100A5900050822EFB44611E4F529F52D752C010599
:100A690009E5097002050822E53E601BE5296017C2
:100A7900EF3395E0F5448F45E5456431454470040D
:100A8900F50B8003750B01E52D6033E50B700CAF99
:100A99000974552FF8E6FE7422801FC3E5099405F1
:100AA900E50864809480AF09745550082FF8E6FE74
:100AB900742280062FF8E6FE74222FF8A606E52C8C
:100AC9006033E50B700CAF0974552FF8E6FE7428F6
:100AD900801FC3E5099410E50864809480AF097408
:100AE9005550082FF8E6FE742680062FF8E6FE74A6
:0E0AF900262FF8A6060509E509700205082259
:10080000E50B60030208BCF52A752B01F54BF54C8E
:10081000F547754807742E2548F8E6FF3395E0FE46
:10082000AD54ED3395E0FCC3EF9DFFEE9CFEAC2A8A
:10083000AD2B120CB0E54C2FF54CE54B3EF54BAE15
:100840002AAF2B7C007D0A120CB08E2A8F2BE54834
:10085000154870021547E548B4FFBAE547B4FFB53F
:10086000752A00752B01E4F53FF540F54775480101
:1008700074252548F8E6FF3395E0FEAD54ED339539
:10088000E0FCC3EF9DFFEE9CFEAC2AAD2B120CB03A
:10089000E5402FF540E53F3EF53FAE2AAF2B7C000B
:1008A0007D0A120CB08E2A8F2BE548154870021570
:1008B00047E548B4FFBAE547B4FFB522752A00758D
:1008C0002B01E4F54BF54CF547754807742E254888
:1008D000F8E6FF3395E0FEAD54ED3395E0FCC3EF51
:1008E0009DFFEE9CFEAC2AAD2B120CB0E54C2FF513
:1008F0004CE54B3EF54BAE2AAF2B7C007D0A120C2B
:10090000B08E2A8F2BE548154870021547E548B48C
:10091000FFBAE547B4FFB5752A00752B01E4F53F32
:10092000F540F54775480174252548F8E6FF3395ED
:10093000E0FEAD54ED3395E0FCC3EF9DFFEE9CFE71
:10094000AC2AAD2B120CB0E5402FF540E53F3EF54B
:100950003FAE2AAF2B7C007D0A120CB08E2A8F2B63
:10096000E548154870021547E548B4FFBAE547B4B5
:10097000FFB5752A00752B01E4F54DF54EF5477569
:10098000480774362548F8E6FF3395E0FEAD54ED90
:100990003395E0FCC3EF9DFFEE9CFEAC2AAD2B121D
:1009A0000CB0E54E2FF54EE54D3EF54DAE2AAF2B82
:1009B0007C007D0A120CB08E2A8F2BE548154870FA
:1009C000021547E548B4FFBAE547B4FFB5752A00FC
:1009D000752B01E4F541F542F5477548017427256B
:1009E00048F8E6FF3395E0FEAD54ED3395E0FCC3E7
:1009F000EF9DFFEE9CFEAC2AAD2B120CB0E5422F12
:100A0000F542E5413EF541AE2AAF2B7C007D0A124E
:100A10000CB08E2A8F2BE548154870021547E54823
:090A2000B4FFBAE547B4FFB522AA
:100C0C00D2ACD2AFC29FD29EC29DD29C75892075A8
:100C1C008DFDD28EE4F546F508F509755430745502
:100C2C002509F8E6FD64456009E5437005120A29BB
:100C3C0080ECEDB445E8754301120800E4F508F5C5
:030C4C000980DB41
:080CC2008F993099FDC29922BF
:03000000020B07E9
:0C0B0700787FE4F6D8FD75816E020B4E7D
:100CB000EF8DF0A4A8F0CF8CF0A428CE8DF0A42E58
:020CC000FE2212
:100B1300020C0CE493A3F8E493A34003F68001F2E0
:100B230008DFF48029E493A3F85407240CC8C333E3
:100B3300C4540F4420C8834004F456800146F6DFB2
:100B4300E4800B0102040810204080900C7AE47EBC
:100B5300019360BCA3FF543F30E509541FFEE493A7
:100B6300A360010ECF54C025E060A840B8E493A36E
:100B7300FAE493A3F8E493A3C8C582C8CAC583CA99
:100B8300F0A3C8C582C8CAC583CADFE9DEE780BE51
:010C9600005D
:00000001FF
