:100FB5000146000131000135000134000113000133
:050FC5004B01011201C7
:100D8900E54C64307003020E32E54C6431600302B5
:100D99000E3275AE13AC52AD53EC1209ABA804A9CF
:100DA90005AA06AB07E4FFFE7D807C3F120909E432
:100DB900FBFA797A78441208008F0D8E0C8D0B8C12
:100DC9000A7BFC7AF479B27833120909E4FBFA79DF
:100DD9007A78441209091209E48FB3EEF5B47F0A4F
:100DE9007ED77D237C3CAB0DAA0CA90BA80A12085F
:100DF90000C004C005C006C007AC47AD48EC1209E5
:100E0900ABD003D002D001D0001208007BFC7AF4E9
:100E190079B27833120909E4FBFA797A784412092C
:0A0E2900091209E48FB1EEF5B222C0
:100F7E00E4F550F551F550F551E5516401455070C9
:100F8E0004AF4C800774572551F8E6FF120FCB05BE
:100F9E0051E55170020550C39419E5506480948058
:070FAE0040D77F0A020FCBC0
:03002300020EBF0B
:100EBF00C0E0C0F0C083C082C0D075D000C000C0F9
:0D0ECF0001C002C003C004C005C006C0077A
:100EDC00757000309826AF998F70C298AF4DEF3374
:100EEC0095E0FEEF64014E700AE570B44705120FF1
:100EFC007E80167457254DF8A670054D309902C2A8
:100F0C0099E570B44508754B00754D008003754B21
:010F1C0001D3
:100F1D00D007D006D005D004D003D002D001D00028
:0B0F2D00D0D0D082D083D0F0D0E032D2
:100CAE0074572509F8E6FFB45314754601753101E2
:100CBE00E4F534F5350509E5097017050822EFB49A
:100CCE004411E4F531753501F5340509E509700275
:100CDE00050822EFB44611E4F531F53575340105FA
:100CEE0009E5097002050822E5466018E531601431
:100CFE008F4CEF3395E0FEEF64314E7004F51380A8
:100D0E0003751301E5356033E513700CAF097457A5
:100D1E002FF8E6FE742A801FC3E5099405E50864E2
:100D2E00809480AF09745750082FF8E6FE742A801D
:100D3E00062FF8E6FE742A2FF8A606E5346033E592
:100D4E0013700CAF0974572FF8E6FE7430801FC372
:100D5E00E5099410E50864809480AF097457500833
:100D6E002FF8E6FE742E80062FF8E6FE742E2FF86E
:0B0D7E00A6060509E509700205082221
:100A8500E5136003020B41F532753301F552F55359
:100A9500F54E754F077436254FF8E6FF3395E0FEA2
:100AA500AD56ED3395E0FCC3EF9DFFEE9CFEAC32F9
:100AB500AD33120A65E5532FF553E5523EF552AEB7
:100AC50032AF337C007D0A120A658E328F33E54FD3
:100AD500154F7002154EE54FB4FFBAE54EB4FFB59C
:100AE500753200753301E4F547F548F54E754F014C
:100AF500742D254FF8E6FF3395E0FEAD56ED3395A1
:100B0500E0FCC3EF9DFFEE9CFEAC32AD33120A65EF
:100B1500E5482FF548E5473EF547AE32AF337C0053
:100B25007D0A120A658E328F33E54F154F70021517
:100B35004EE54FB4FFBAE54EB4FFB52275320075E8
:100B45003301E4F552F553F54E754F077436254FCD
:100B5500F8E6FF3395E0FEAD56ED3395E0FCC3EFC7
:100B65009DFFEE9CFEAC32AD33120A65E5532FF5C1
:100B750053E5523EF552AE32AF337C007D0A120A80
:100B8500658E328F33E54F154F7002154EE54FB424
:100B9500FFBAE54EB4FFB5753200753301E4F5478C
:100BA500F548F54E754F01742D254FF8E6FF339541
:100BB500E0FEAD56ED3395E0FCC3EF9DFFEE9CFEE8
:100BC500AC32AD33120A65E5482FF548E5473EF5E9
:100BD50047AE32AF337C007D0A120A658E328F3301
:100BE500E54F154F7002154EE54FB4FFBAE54EB40B
:100BF500FFB5753200753301E4F554F555F54E75BD
:100C05004F07743E254FF8E6FF3395E0FEAD56EDF0
:100C15003395E0FCC3EF9DFFEE9CFEAC32AD331285
:100C25000A65E5552FF555E5543EF554AE32AF331B
:100C35007C007D0A120A658E328F33E54F154F70A1
:100C450002154EE54FB4FFBAE54EB4FFB575320057
:100C5500753301E4F549F54AF54E754F01742F25B5
:100C65004FF8E6FF3395E0FEAD56ED3395E0FCC356
:100C7500EF9DFFEE9CFEAC32AD33120A65E54A2FBF
:100C8500F54AE5493EF549AE32AF337C007D0A129F
:100C95000A658E328F33E54F154F7002154EE54FBD
:090CA500B4FFBAE54EB4FFB5221C
:100F3800D2ACD2AFC29FD29EC29DD29C7589207579
:100F48008DFDD28EE4F54DF508F5097556307457C8
:100F58002509F8E6FD64456009E54B7005120CAEFD
:100F680080ECEDB445E8754B01120A85E4F508F507
:060F780009120D8980D86A
:080FCB008F993099FDC29922B3
:10080000EC4D6011E8497017ED33EC3304600DE4F2
:10081000FCFFFEFD22E933E8330470F8020A5012AF
:100820000A1B58046009E4CC2481500628500902B0
:100830000A5A284003020A57C0E0EB4A7044B980C4
:1008400006D0E0FB020A46EF4E701CBD8008EBFFAD
:10085000EAFEE9FD80EBE98DF0A4FEE5F00208E98F
:10086000E9CDF9EAFEEBFFEF89F0A4FCE5F0CE89D3
:10087000F0A42EFFE435F0CD89F0A42DFEE435F090
:100880008067EF4E7005BD80D780C3EF8BF0A4ACBE
:10089000F0EE8BF0A42CFCE435F0F8EF8AF0A42CF9
:1008A000E5F038FCE433CB8DF0A42CFCE5F03BF80C
:1008B000EE8AF0A42CFCE5F038F8E433CF89F0A4FC
:1008C0002CFCE5F038CF3400CE89F0A42FFFE5F002
:1008D0003EFEE433C98DF0A42EFEE5F039CD8AF05A
:1008E000A42FFFE5F03EFEE43DFD33D0E0FB5007D2
:1008F0000BBB000F020A5AEC2CFCEF33FFEE33FE69
:06090000ED33FD020A3296
:10090600020A5AEC5D046005E859047003020A50B5
:10091600120A1B580460F6EC4860F2EC7004FDFE07
:10092600FF22C860DB2481C85009C39860025006C4
:10093600020A579850CAF582E9294B4A7005AB82DC
:10094600020A4675F0007C1A7880C3EF9BEE9AED9A
:1009560099400DC3EF9BFFEE9AFEED99FDE842F03C
:10096600DC23ACF0D0E0FFD0E0FED0E0FDAB82208F
:10097600E7101BEB60BAEC2CFCEF33FFEE33FEED19
:1009860033FD020A32E803F830E705C0F075F000DF
:10099600EF2FFFEE33FEED33FD40B830E7C280AAFD
:1009A60075F020800E75F010800575F0087D007ECC
:1009B600007F003392D530D503120A77EC3340100E
:1009C600EF33FFEE33FEED33FDEC33FCD5F0ED22D5
:0E09D600E5F0247EA2D513CC92E7CDCEFF2211
:1009E400EDD2E7CD33EC3392D524814006E4FFFE0B
:1009F400FDFC22FCE4CFCECDCC24E0501174FF806A
:100A0400EDC3CC13CCCD13CDCE13CECF13CF047006
:070A1400F030D5DE020A7785
:100A1B00E9D2E7C933E833F892D5EDD2E7CD33EC21
:070A2B0033FC5002B2D5229A
:100A3200EC30E7100FBF000C0EBE00080DBD000425
:100A42000BEB6014A2D5EB13FCED92E7FD2274FFD1
:100A5200FCFDFEFF22E480F8A2D574FF13FC7D802A
:030A6200E480EF3E
:03000000020E33BA
:0C0E3300787FE4F6D8FD758170020E7A1D
:100A6500EF8DF0A4A8F0CF8CF0A428CE8DF0A42EA5
:020A7500FE225F
:0E0A7700C3E49FFFE49EFEE49DFDE49CFC2290
:100E3F00020F38E493A3F8E493A34003F68001F282
:100E4F0008DFF48029E493A3F85407240CC8C333B4
:100E5F00C4540F4420C8834004F456800146F6DF83
:100E6F00E4800B0102040810204080900FB5E47E4F
:100E7F00019360BCA3FF543F30E509541FFEE49378
:100E8F00A360010ECF54C025E060A840B8E493A33F
:100E9F00FAE493A3F8E493A3C8C582C8CAC583CA6A
:100EAF00F0A3C8C582C8CAC583CADFE9DEE780BE22
:010FCA000026
:00000001FF
