:10000300041440BDA5E3012E00011300011D0001EE
:0B0013001C00010E00013101010D0175
:1000260053AFBFE5326430700302043EE5326431FB
:1000360060030200E275AE13AF39AE38AD37AC36A9
:10004600EC1206DDA804A905AA06AB07E4FFFE7DAF
:10005600807C3F120640E4FBFA797A784412053731
:100066007BAA7A3379C27833120640E4FBFA797AAE
:10007600784412064012071B8FB3EEF5B4AF39AEC3
:1000860038AD37AC36EC1206DDA804A905AA06ABD6
:1000960007E4FFFE7D807C3F120640E4FBFA7920F0
:1000A6007841120537C004C005C006C007AC2FEC66
:1000B6001206E7D003D002D001D0001205377BAA82
:1000C6007A3379C27833120640E4FBFA797A7844B7
:1000D60012064012071B8FB1EEF5B222E5326432EA
:1000E600600302026275AE23AF39AE38AD37AC3667
:1000F600EC1206DDA804A905AA06AB07E4FFFE7DFF
:10010600807C3F120640E4FBFA797A784412053780
:100116007BAA7A3379C27833120640E4FBFA797AFD
:10012600784412064012071B8FB3AF39AE38AD378D
:10013600AC36EC1206DDA804A905AA06AB07E4FF57
:10014600FE7D807C3F120640E4FBFA79207841125E
:100156000537C004C005C006C007AC2FEC1206E781
:10016600D003D002D001D0001205377BAA7A3379AA
:10017600C27833120640E4FBFA797A7844120640D4
:1001860012071B8FB1E4FFFEFDFCAB3DAA3CA93B69
:10019600A83AD31207F94032AF3DAE3CAD3BAC3A7C
:1001A600EC1206DDA804A905AA06AB07E4FFFE7D4E
:1001B600807C3F120640E4FBFA797A7844120537D0
:1001C6008F0C8E0B8D0A8C098009E4F50CF50BF566
:1001D6000AF5097BAA7A3379C27833AF0CAE0BAD38
:1001E6000AAC09120640E4FBFA797A784412064012
:1001F60012071B8FB4AF39AE38AD37AC36EC1206EA
:10020600DDA804A905AA06AB07E4FFFE7D807C3FB6
:10021600120640E4FBFA79207841120537C004C083
:1002260005C006C007AC30EC1206E7D003D002D0FA
:1002360001D000120537AB0CAA0BA90AA8091204B3
:10024600467BAA7A3379C27833120640E4FBFA7900
:100256007A784412064012071B8FB222E5326433C5
:10026600600302030175AE337F0A7ED77D237C3C93
:10027600AB17AA16A915A814120537C004C005C0E5
:1002860006C007AC2FEC1206E7D003D002D001D08F
:10029600001205377BAA7A3379C27833120640E416
:1002A600FBFA797A784412064012071B8FB1EEF5F5
:1002B600B27F0A7ED77D237C3CAB17AA16A915A868
:1002C60014120537C004C005C006C007AC30EC12D6
:1002D60006E7D003D002D001D0001205377BAA7AF8
:1002E6003379C27833120640E4FBFA797A784412FD
:1002F600064012071B8FB3EEF5B422E53264347064
:100306000302043EE5326435600302043E75AE53D3
:10031600AF39AE38AD37AC36EC1206DDA804A90508
:10032600AA06AB07E4FFFE7D807C3F1206407BAA4F
:100336007A3379C27833120640E4FBFA797A784444
:1003460012064012071B8FB3AF3DAE3CAD3BAC3A35
:10035600EC1206DDA804A905AA06AB07E4FFFE7D9C
:10036600807C3F1206407BAA7A3379C27833120624
:1003760040E4FBFA797A784412064012071B8FB4E0
:10038600AF39AE38AD37AC36EC1206DDA804A90598
:10039600AA06AB07E4FFFE7D807C3F1206407B0A7F
:1003A6007AD77923783C120537C004C005C006C049
:1003B60007AC2FEC1206E7D003D002D001D0001212
:1003C60005377BAA7A3379C27833120640E4FBFA02
:1003D600797A784412064012071B8FB1AF3DAE3CC6
:1003E600AD3BAC3AEC1206DDA804A905AA06AB079C
:1003F600E4FFFE7D807C3F1206407B0A7AD7792394
:10040600783C120537C004C005C006C007AC30EC06
:100416001206E7D003D002D001D0001205377BAA1E
:100426007A3379C27833120640E4FBFA797A784453
:0904360012064012071B8FB222CE
:100CCE00E4F535F535AF35EF3395E0FEC3EF941906
:100CDE00EE648094805018EF64014E7004AF328041
:100CEE0007743F2535F8E6FF120D02053580D67FD5
:040CFE000A020D02D7
:03002300020C13B9
:100C1300C0E0C0F0C083C082C0D075D000C000C0A7
:0D0C230001C002C003C004C005C006C00728
:100C3000755800309826AF998F58C298AF33EF336C
:100C400095E0FEEF64014E700AE558B44705120CBA
:100C5000CE8016743F2533F8A6580533309902C26A
:100C600099E558B445087531007533008003753136
:010C70000182
:100C7100D007D006D005D004D003D002D001D000D7
:0B0C8100D0D0D082D083D0F0D0E03281
:100ABC00743F2508F8E6FFB4530E752E017513012B
:100ACC00E4F51CF51D050822EFB4440BE4F5137591
:100ADC001D01F51C050822EFB4460BE4F513F51DBA
:100AEC00751C01050822E52E6018E51360148F3281
:100AFC00EF3395E0FEEF64314E7004F50E80037514
:100B0C000E01E51D6037E50E700B743F2508F8E605
:100B1C00FF740C8023AF08EF3395E0FEC3EF940510
:100B2C00EE64809480743F50082FF8E6FF740C80BC
:100B3C00072508F8E6FF740C2508F8A607E51C60E5
:100B4C0037E50E700B743F2508F8E6FF7418802308
:100B5C00AF08EF3395E0FEC3EF9410EE6480948001
:100B6C00743F50082FF8E6FF741680072508F8E646
:0B0B7C00FF74162508F8A607050822E4
:10080F00E50E60030208F9751B01F51AF519F518C5
:10081F00F539F538F537F536753407AF34EF3395CD
:10082F00E0C3648094804059741E2FF8E6FF33951F
:10083F00E0FEAD3EED3395E0FCC3EF9DFFEE9CFE79
:10084F003395E0FDFCAB1BAA1AA919A81812079C37
:10085F00EF2539F539EE3538F538ED3537F537EC15
:10086F003536F536AF1BAE1AAD19AC18E47B0AFA64
:10087F00F9F812079C8F1B8E1A8D198C181534805E
:10088F009AE4751B01F51AF519F518F52F75340152
:10089F00AF34EF3395E0C3648094805003020ABBFA
:1008AF00740F2FF8E6FF3395E0FEAD3EED3395E084
:1008BF00FCC3EF9DFFEE9CFE3395E0FDFCAB1BAA46
:1008CF001AA919A81812079CE52F2FF52FAF1BAEE9
:1008DF001AAD19AC18E47B0AFAF9F812079C8F1BB2
:1008EF008E1A8D198C18153480A6E4751B01F51A14
:1008FF00F519F518F539F538F537F536753407AFBD
:10090F0034EF3395E0C3648094804059741E2FF800
:10091F00E6FF3395E0FEAD3EED3395E0FCC3EF9D72
:10092F00FFEE9CFE3395E0FDFCAB1BAA1AA919A89C
:10093F001812079CEF2539F539EE3538F538ED35B6
:10094F0037F537EC3536F536AF1BAE1AAD19AC1897
:10095F00E47B0AFAF9F812079C8F1B8E1A8D198CFB
:10096F00181534809AE4751B01F51AF519F518F569
:10097F002F753401AF34EF3395E0C364809480401A
:10098F004A740F2FF8E6FF3395E0FEAD3EED339539
:10099F00E0FCC3EF9DFFEE9CFE3395E0FDFCAB1B2F
:1009AF00AA1AA919A81812079CE52F2FF52FAF1B0C
:1009BF00AE1AAD19AC18E47B0AFAF9F812079C8F3E
:1009CF001B8E1A8D198C18153480A9E4751B01F52F
:1009DF001AF519F518F53DF53CF53BF53A75340761
:1009EF00AF34EF3395E0C364809480405974262F61
:1009FF00F8E6FF3395E0FEAD3EED3395E0FCC3EF37
:100A0F009DFFEE9CFE3395E0FDFCAB1BAA1AA919C6
:100A1F00A81812079CEF253DF53DEE353CF53CED52
:100A2F00353BF53BEC353AF53AAF1BAE1AAD19AC89
:100A3F0018E47B0AFAF9F812079C8F1B8E1A8D198E
:100A4F008C181534809AE4751B01F51AF519F518F1
:100A5F00F530753401AF34EF3395E0C36480948083
:100A6F00404A74112FF8E6FF3395E0FEAD3EED33AB
:100A7F0095E0FCC3EF9DFFEE9CFE3395E0FDFCABD4
:100A8F001BAA1AA919A81812079CE5302FF530AF29
:100A9F001BAE1AAD19AC18E47B0AFAF9F812079CD1
:0D0AAF008F1B8E1A8D198C18153480A9220A
:100C8C00D2ACD2AFC29FD29EC29DD29C7589207528
:100C9C008DFDD28EE4F533F508753E30743F250892
:100CAC00F8E6FD64456009E5317005120ABC80EC7C
:100CBC00EDB445E875310112080FE4F50812002671
:020CCC0080DACC
:080D02008F993099FDC299227E
:10043F00020787E86480F8E933E83360110460F05D
:10044F00ED33EC337009E8FCE9FDEAFEEBFF220423
:10045F0060DED3EB9FEA9EE99DE8C2E78CF0C2F71E
:10046F0095F0400CE8CCF8E9CDF9EACEFAEBCFFBEA
:10047F0012075285D0F05804700320D5B3E80470EA
:10048F00075002B2D502079192D5EC0460F7E4CC85
:10049F00C0E0C398F8603B94186008400DD0E0FBB3
:1004AF00020769E4FBFAC9FC8028E830E406E4C9D6
:1004BF00FBE4CAFCE830E305E4C9CACBFCE8540707
:1004CF006010F8C3E913F9EA13FAEB13FBEC13FC12
:1004DF00D8F130F52FC3E49CFCEF9BFFEE9AFEEDB5
:1004EF0099FDD0E0FBEF4E4D4C701222DB0302075B
:1004FF008EEC2CFCEF33FFEE33FEED33FDED30E7EA
:10050F00EB020769EF2BFFEE3AFEED39FDD0E0FB72
:10051F0050130BBB0003020791ED13FDEE13FEEF1B
:08052F0013FFEC13FC02076945
:10053700EC4D6011E8497017ED33EC3304600DE4BE
:10054700FCFFFEFD22E933E8330470F80207871247
:10055700075258046009E4CC248150062850090248
:10056700079128400302078EC0E0EB4A7044B98028
:1005770006D0E0FB02077DEF4E701CBD8008EBFF45
:10058700EAFEE9FD80EBE98DF0A4FEE5F002062026
:10059700E9CDF9EAFEEBFFEF89F0A4FCE5F0CE899F
:1005A700F0A42EFFE435F0CD89F0A42DFEE435F05C
:1005B7008067EF4E7005BD80D780C3EF8BF0A4AC8A
:1005C700F0EE8BF0A42CFCE435F0F8EF8AF0A42CC5
:1005D700E5F038FCE433CB8DF0A42CFCE5F03BF8D8
:1005E700EE8AF0A42CFCE5F038F8E433CF89F0A4C8
:1005F7002CFCE5F038CF3400CE89F0A42FFFE5F0CE
:100607003EFEE433C98DF0A42EFEE5F039CD8AF025
:10061700A42FFFE5F03EFEE43DFD33D0E0FB50079D
:100627000BBB000F020791EC2CFCEF33FFEE33FE00
:06063700ED33FD0207692E
:10063D00020791EC5D046005E85904700302078719
:10064D00120752580460F6EC4860F2EC7004FDFE9F
:10065D00FF22C860DB2481C85009C3986002500690
:10066D0002078E9850CAF582E9294B4A7005AB8274
:10067D0002077D75F0007C1A7880C3EF9BEE9AED32
:10068D0099400DC3EF9BFFEE9AFEED99FDE842F008
:10069D00DC23ACF0D0E0FFD0E0FED0E0FDAB82205B
:1006AD00E7101BEB60BAEC2CFCEF33FFEE33FEEDE5
:1006BD0033FD020769E803F830E705C0F075F00077
:1006CD00EF2FFFEE33FEED33FD40B830E7C280AAC9
:1006DD0075F020800E75F010800575F0087D007E98
:1006ED00007F003392D530D5031207EBEC33401069
:1006FD00EF33FFEE33FEED33FDEC33FCD5F0ED22A1
:0E070D00E5F0247EA2D513CC92E7CDCEFF22DC
:10071B00EDD2E7CD33EC3392D524814006E4FFFED6
:10072B00FDFC22FCE4CFCECDCC24E0501174FF8035
:10073B00EDC3CC13CCCD13CDCE13CECF13CF0470D2
:07074B00F030D5DE0207EBE0
:10075200E9D2E7C933E833F892D5EDD2E7CD33ECED
:0707620033FC5002B2D52266
:10076900EC30E7100FBF000C0EBE00080DBD0004F1
:100779000BEB6014A2D5EB13FCED92E7FD2274FF9D
:10078900FCFDFEFF22E480F8A2D574FF13FC7D80F6
:03079900E480EF0A
:03000000020B8769
:0C0B8700787FE4F6D8FD758158020BCE93
:10079C00E88FF0A4CC8BF0A42CFCE98EF0A42CFCFC
:1007AC008AF0EDA42CFCEA8EF0A4CDA8F08BF0A47A
:1007BC002DCC3825F0FDE98FF0A42CCD35F0FCEBD9
:1007CC008EF0A4FEA9F0EB8FF0A4CFC5F02ECD399E
:0F07DC00FEE43CFCEAA42DCE35F0FDE43CFC220B
:0E07EB00C3E49FFFE49EFEE49DFDE49CFC221F
:1007F900EB9FF5F0EA9E42F0E99D42F0EC6480C877
:0608090064809845F02216
:100B9300020C8CE493A3F8E493A34003F68001F2E0
:100BA30008DFF48029E493A3F85407240CC8C33363
:100BB300C4540F4420C8834004F456800146F6DF32
:100BC300E4800B0102040810204080900003E47EBF
:100BD300019360BCA3FF543F30E509541FFEE49327
:100BE300A360010ECF54C025E060A840B8E493A3EE
:100BF300FAE493A3F8E493A3C8C582C8CAC583CA19
:100C0300F0A3C8C582C8CAC583CADFE9DEE780BED0
:01001E0000E1
:00000001FF
