:100C8600013E00012900012D00012C00010B00018D
:050C96004301010A0109
:010CB600221B
:100C4F00E4F548F549F548F549E54964014548702B
:100C5F0004AF448007744F2549F8E6FF120CAE0528
:100C6F0049E54970020548C39419E54864809480AA
:070C7F0040D77F0A020CAE12
:03002300020B903D
:100B9000C0E0C0F0C083C082C0D075D000C000C02B
:0D0BA00001C002C003C004C005C006C007AC
:100BAD00756800309826AF998F68C298AF45EF33BE
:100BBD0095E0FEEF64014E700AE568B44705120C2E
:100BCD004F8016744F2545F8A6680545309902C229
:100BDD0099E568B445087543007545008003754374
:010BED000106
:100BEE00D007D006D005D004D003D002D001D0005B
:0B0BFE00D0D0D082D083D0F0D0E03205
:100A2900744F2509F8E6FFB45314753E0175290181
:100A3900E4F52CF52D0509E5097017050822EFB431
:100A49004411E4F529752D01F52C0509E509700214
:100A5900050822EFB44611E4F529F52D752C010599
:100A690009E5097002050822E53E6018E5296014C8
:100A79008F44EF3395E0FEEF64314E7004F50B803F
:100A890003750B01E52D6033E50B700CAF09744F4D
:100A99002FF8E6FE7422801FC3E5099405E5086472
:100AA900809480AF09744F50082FF8E6FE742280B5
:100AB900062FF8E6FE74222FF8A606E52C6033E52A
:100AC9000B700CAF09744F2FF8E6FE7428801FC312
:100AD900E5099410E50864809480AF09744F5008C3
:100AE9002FF8E6FE742680062FF8E6FE74262FF806
:0B0AF900A6060509E5097002050822A9
:10080000E50B60030208BCF52A752B01F54AF54B90
:10081000F546754707742E2547F8E6FF3395E0FE49
:10082000AD4EED3395E0FCC3EF9DFFEE9CFEAC2A90
:10083000AD2B120C9CE54B2FF54BE54A3EF54AAE2D
:100840002AAF2B7C007D0A120C9C8E2A8F2BE54749
:10085000154770021546E547B4FFBAE546B4FFB543
:10086000752A00752B01E4F53FF540F54675470103
:1008700074252547F8E6FF3395E0FEAD4EED339540
:10088000E0FCC3EF9DFFEE9CFEAC2AAD2B120C9C4E
:10089000E5402FF540E53F3EF53FAE2AAF2B7C000B
:1008A0007D0A120C9C8E2A8F2BE547154770021586
:1008B00046E547B4FFBAE546B4FFB522752A007590
:1008C0002B01E4F54AF54BF546754707742E25478D
:1008D000F8E6FF3395E0FEAD4EED3395E0FCC3EF57
:1008E0009DFFEE9CFEAC2AAD2B120C9CE54B2FF528
:1008F0004BE54A3EF54AAE2AAF2B7C007D0A120C2E
:100900009C8E2A8F2BE547154770021546E547B4A4
:10091000FFBAE546B4FFB5752A00752B01E4F53F33
:10092000F540F54675470174252547F8E6FF3395F0
:10093000E0FEAD4EED3395E0FCC3EF9DFFEE9CFE77
:10094000AC2AAD2B120C9CE5402FF540E53F3EF55F
:100950003FAE2AAF2B7C007D0A120C9C8E2A8F2B77
:10096000E547154770021546E547B4FFBAE546B4BA
:10097000FFB5752A00752B01E4F54CF54DF546756C
:10098000470774362547F8E6FF3395E0FEAD4EED98
:100990003395E0FCC3EF9DFFEE9CFEAC2AAD2B121D
:1009A0000C9CE54D2FF54DE54C3EF54CAE2AAF2B9A
:1009B0007C007D0A120C9C8E2A8F2BE54715477010
:1009C000021546E547B4FFBAE546B4FFB5752A00FF
:1009D000752B01E4F541F542F5467547017427256D
:1009E00047F8E6FF3395E0FEAD4EED3395E0FCC3EE
:1009F000EF9DFFEE9CFEAC2AAD2B120C9CE5422F26
:100A0000F542E5413EF541AE2AAF2B7C007D0A124E
:100A10000C9C8E2A8F2BE547154770021546E5473B
:090A2000B4FFBAE546B4FFB522AB
:100C0900D2ACD2AFC29FD29EC29DD29C75892075AB
:100C19008DFDD28EE4F545F508F509754E30744F12
:100C29002509F8E6FD64456009E5437005120A29BE
:100C390080ECEDB445E8754301120800E4F508F5C8
:060C490009120CB680D870
:080CAE008F993099FDC29922D3
:03000000020B04EC
:0C0B0400787FE4F6D8FD758168020B4B89
:100C9C00EF8DF0A4A8F0CF8CF0A428CE8DF0A42E6C
:020CAC00FE2226
:100B1000020C09E493A3F8E493A34003F68001F2E6
:100B200008DFF48029E493A3F85407240CC8C333E6
:100B3000C4540F4420C8834004F456800146F6DFB5
:100B4000E4800B0102040810204080900C86E47EB3
:100B5000019360BCA3FF543F30E509541FFEE493AA
:100B6000A360010ECF54C025E060A840B8E493A371
:100B7000FAE493A3F8E493A3C8C582C8CAC583CA9C
:100B8000F0A3C8C582C8CAC583CADFE9DEE780BE54
:010C9B000058
:00000001FF
